:020000040800F2
:1000000000000220152E00086D2C0008752C000839
:100010007D2C0008852C00088D2C000800000000B5
:10002000000000000000000000000000952C000807
:10003000A32C000800000000B12C0008BF2C000811
:10004000652E0008652E0008652E0008652E000844
:10005000652E0008652E0008652E0008652E000834
:10006000CF2C0008652E0008DD2C0008652E000846
:10007000652E0008652E0008652E0008652E000814
:10008000652E0008652E0008652E0008652E000804
:10009000652E0008652E0008652E0008EB2C000870
:1000A000652E0008652E0008652E0008652E0008E4
:1000B000652E0008652E0008652E0008652E0008D4
:1000C000652E0008652E0008652E0008652E0008C4
:1000D000652E0008652E0008652E0008652E0008B4
:1000E000F92C0008652E0008652E0008652E000812
:1000F000652E0008652E0008652E0008652E000894
:10010000652E0008652E0008652E0008652E000883
:10011000652E0008652E0008652E0008652E000873
:10012000652E0008652E0008652E0008652E000863
:10013000652E0008652E0008652E0008652E000853
:10014000652E0008652E0008652E0008652E000843
:10015000652E0008652E0008652E0008652E000833
:10016000652E0008652E0008652E0008652E000823
:10017000652E0008652E0008652E0008652E000813
:10018000652E0008652E0008652E0008652E000803
:10019000652E000800000000312D0008452D0008E4
:1001A000652E0008652E0008652E0008652E0008E3
:1001B000652E0008652E0008652E0008652E0008D3
:1001C000652E0008652E0008652E0008652E0008C3
:0801D000652E0008652E0008F1
:1001D80010B5054C237833B9044B13B10448AFF379
:1001E80000800123237010BD64000020000000007F
:1001F8009081000808B5034B1BB103490348AFF3CE
:10020800008008BD00000000680000209081000800
:1002180081F0004102E000BF83F0004330B54FEAAF
:1002280041044FEA430594EA050F08BF90EA020F1C
:100238001FBF54EA000C55EA020C7FEA645C7FEAAF
:10024800655C00F0E2804FEA5454D4EB5555B8BFD2
:100258006D420CDD2C4480EA020281EA030382EA43
:10026800000083EA010180EA020281EA0303362DD5
:1002780088BF30BD11F0004F4FEA01314FF4801CA8
:100288004CEA113102D0404261EB410113F0004FBA
:100298004FEA03334CEA133302D0524263EB430371
:1002A80094EA050F00F0A780A4F10104D5F1200E0F
:1002B8000DDB02FA0EFC22FA05F2801841F100016A
:1002C80003FA0EF2801843FA05F359410EE0A5F13E
:1002D80020050EF1200E012A03FA0EFC28BF4CF06F
:1002E800020C43FA05F3C01851EBE37101F0004525
:1002F80007D54FF0000EDCF1000C7EEB00006EEB32
:100308000101B1F5801F1BD3B1F5001F0CD34908BB
:100318005FEA30004FEA3C0C04F101044FEA445212
:1003280012F5800F80F09A80BCF1004F08BF5FEA99
:10033800500C50F1000041EB045141EA050130BD79
:100348005FEA4C0C404141EB0101013C28BFB1F58B
:10035800801FE9D291F0000F04BF01460020B1FAD6
:1003680081F308BF2033A3F10B03B3F120020CDAA9
:100378000C3208DD02F1140CC2F10C0201FA0CF087
:1003880021FA02F10CE002F11402D8BFC2F1200CEC
:1003980001FA02F120FA0CFCDCBF41EA0C019040A2
:1003A800E41AA2BF01EB0451294330BD6FEA0404EB
:1003B8001F3C1CDA0C340EDC04F11404C4F12002D6
:1003C80020FA04F001FA02F340EA030021FA04F3E8
:1003D80045EA030130BDC4F10C04C4F1200220FA3F
:1003E80002F001FA04F340EA0300294630BD21FA7D
:1003F80004F0294630BD94F0000F83F4801306BF43
:1004080081F480110134013D4EE77FEA645C18BF36
:100418007FEA655C29D094EA050F08BF90EA020FCD
:1004280005D054EA000C04BF1946104630BD91EAC5
:10043800030F1EBF0021002030BD5FEA545C05D1C8
:100448004000494128BF41F0004130BD14F5800407
:100458003CBF01F5801130BD01F0004545F0FE417B
:1004680041F470014FF0000030BD7FEA645C1ABFB0
:10047800194610467FEA655C1CBF0B46024650EAE7
:10048800013406BF52EA033591EA030F41F4002113
:1004980030BD00BF90F0000F04BF0021704730B599
:1004A8004FF4806404F132044FF000054FF000016E
:1004B80050E700BF90F0000F04BF0021704730B52F
:1004C8004FF4806404F1320410F0004548BF404204
:1004D8004FF000013EE700BF42004FEAE2014FEA59
:1004E80031014FEA02701FBF12F07F4393F07F4F34
:1004F80081F06051704732F07F4208BF704793F037
:100508007F4F04BF41F40021704730B54FF4607449
:1005180001F0004521F000411CE700BF50EA01024C
:1005280008BF704730B54FF000050AE050EA0102F5
:1005380008BF704730B511F0004502D5404261EB65
:1005480041014FF4806404F132045FEA915C3FF4A6
:10055800D8AE4FF003025FEADC0C18BF03325FEA43
:10056800DC0C18BF033202EBDC02C2F1200300FAF4
:1005780003FC20FA02F001FA03FE40EA0E0021FA19
:1005880002F11444BDE600BF70B54FF0FF0C4CF407
:10059800E06C1CEA11541DBF1CEA135594EA0C0FB9
:1005A80095EA0C0F00F0DEF82C4481EA030621EAF4
:1005B8004C5123EA4C5350EA013518BF52EA03352F
:1005C80041F4801143F4801338D0A0FB02CE4FF0E1
:1005D8000005E1FB02E506F00042E0FB03E54FF011
:1005E8000006E1FB03569CF0000F18BF4EF0010E09
:1005F800A4F1FF04B6F5007F64F5407404D25FEA05
:100608004E0E6D4146EB060642EAC62141EA5551B7
:100618004FEAC52040EA5E504FEACE2EB4F1FD0CF9
:1006280088BFBCF5E06F1ED8BEF1004F08BF5FEA77
:10063800500E50F1000041EB045170BD06F0004629
:1006480046EA010140EA020081EA0301B4EB5C04D6
:10065800C2BFD4EB0C0541EA045170BD41F48011CE
:100668004FF0000E013C00F3AB8014F1360FDEBFF3
:10067800002001F0004170BDC4F10004203C35DACF
:100688000C341BDC04F11404C4F1200500FA05F352
:1006980020FA04F001FA05F240EA020001F00042F3
:1006A80021F0004110EBD37021FA04F642EB060169
:1006B8005EEA430E08BF20EAD37070BDC4F10C0493
:1006C800C4F1200500FA04F320FA05F001FA04F257
:1006D80040EA020001F0004110EBD37041F1000143
:1006E8005EEA430E08BF20EAD37070BDC4F120054E
:1006F80000FA05F24EEA020E20FA04F301FA05F2B6
:1007080043EA020321FA04F001F0004121FA04F25D
:1007180020EA020000EBD3705EEA430E08BF20EA2D
:10072800D37070BD94F0000F0FD101F00046400067
:1007380041EB010111F4801F08BF013CF7D041EAE9
:10074800060195F0000F18BF704703F000465200ED
:1007580043EB030313F4801F08BF013DF7D043EABE
:100768000603704794EA0C0F0CEA135518BF95EA74
:100778000C0F0CD050EA410618BF52EA4306D1D1FB
:1007880081EA030101F000414FF0000070BD50EA1A
:10079800410606BF1046194652EA430619D094EAA4
:1007A8000C0F02D150EA013613D195EA0C0F05D18E
:1007B80052EA03361CBF104619460AD181EA0301E2
:1007C80001F0004141F0FE4141F470014FF000009A
:1007D80070BD41F0FE4141F4780170BD70B54FF035
:1007E800FF0C4CF4E06C1CEA11541DBF1CEA1355B5
:1007F80094EA0C0F95EA0C0F00F0A7F8A4EB050497
:1008080081EA030E52EA03354FEA013100F088808D
:100818004FEA03334FF0805545EA131343EA126356
:100828004FEA022245EA111545EA10654FEA00260B
:100838000EF000419D4208BF964244F1FD0404F5C4
:10084800407402D25B084FEA3202B61A65EB030520
:100858005B084FEA32024FF480104FF4002CB6EBDD
:10086800020E75EB030E22BFB61A754640EA0C005D
:100878005B084FEA3202B6EB020E75EB030E22BF9D
:10088800B61A754640EA5C005B084FEA3202B6EBDE
:10089800020E75EB030E22BFB61A754640EA9C009D
:1008A8005B084FEA3202B6EB020E75EB030E22BF6D
:1008B800B61A754640EADC0055EA060E18D04FEA2B
:1008C800051545EA16754FEA06164FEAC30343EACB
:1008D80052734FEAC2025FEA1C1CC0D111F4801F98
:1008E8000BD141EA00014FF000004FF0004CB6E791
:1008F80011F4801F04BF01430020B4F1FD0C88BF30
:10090800BCF5E06F3FF6AFAEB5EB030C04BFB6EB3A
:10091800020C5FEA500C50F1000041EB045170BD2D
:100928000EF0004E4EEA113114EB5C04C2BFD4EB5A
:100938000C0541EA045170BD41F480114FF0000EDE
:10094800013C90E645EA060E8DE60CEA135594EA5A
:100958000C0F08BF95EA0C0F3FF43BAF94EA0C0F5D
:100968000AD150EA01347FF434AF95EA0C0F7FF4D2
:1009780025AF104619462CE795EA0C0F06D152EA26
:1009880003353FF4FDAE1046194622E750EA41060A
:1009980018BF52EA43067FF4C5AE50EA41047FF41B
:1009A8000DAF52EA43057FF4EBAE12E74FF0FF3C80
:1009B80006E000BF4FF0010C02E000BF4FF0010C51
:1009C8004DF804CD4FEA410C7FEA6C5C4FEA430CCA
:1009D80018BF7FEA6C5C1BD001B050EA410C0CBF19
:1009E80052EA430C91EA030F02BF90EA020F00207B
:1009F800704710F1000F91EA030F58BF994208BFE2
:100A080090422CBFD8176FEAE37040F0010070479E
:100A18004FEA410C7FEA6C5C02D150EA013C07D1F5
:100A28004FEA430C7FEA6C5CD6D152EA033CD3D040
:100A38005DF8040B704700BF8446104662468C463A
:100A48001946634600E000BF01B5FFF7B7FF00286D
:100A580048BF10F1000F01BD4DF808EDFFF7F4FF96
:100A68000CBF012000205DF808FB00BF4DF808ED21
:100A7800FFF7EAFF34BF012000205DF808FB00BF44
:100A88004DF808EDFFF7E0FF94BF012000205DF866
:100A980008FB00BF4DF808EDFFF7CEFF94BF01201B
:100AA80000205DF808FB00BF4DF808EDFFF7C4FF14
:100AB80034BF012000205DF808FB00BF4FEA410C5D
:100AC8007FEA6C5C02D150EA013C0AD14FEA430C40
:100AD8007FEA6C5C02D152EA033C02D14FF000007D
:100AE80070474FF0010070474FEA4102B2F1E0430E
:100AF80024BFB3F5001CDCF1FE5C0DD901F0004CFD
:100B08004FEAC0024CEA5070B2F1004F40EB83004C
:100B180008BF20F00100704711F0804F21D113F178
:100B28003872BCBF01F00040704741F480114FEAB1
:100B38005252C2F11802C2F1200C10FA0CF320FA3A
:100B480002F018BF40F001004FEAC1234FEAD32357
:100B580003FA0CFC40EA0C0023FA02F34FEA4303C1
:100B6800CCE77FEA625307D150EA01331EBF4FF04A
:100B7800FE4040F44000704701F0004040F0FE4065
:100B880040F40000704700BF80B483B000AF034654
:100B9800FB80FB889B0ADBB203F00103DBB218463B
:100BA8000C37BD465DF8047B704780B483B000AF56
:100BB8000346FB80FB885B0ADBB203F00103DBB270
:100BC80018460C37BD465DF8047B704780B483B087
:100BD80000AF0346FB80FB881B12DBB203F0010366
:100BE800DBB218460C37BD465DF8047B704780B40D
:100BF80083B000AF0346FB80FB88DB11DBB203F058
:100C08000103DBB218460C37BD465DF8047B70471C
:100C180080B483B000AF0346FB80FB881B11DBB2B6
:100C280003F00703DBB218460C37BD465DF8047BBA
:100C3800704780B483B000AF0346FB80FB8803F0A5
:100C48000F0318460C37BD465DF8047B704700005B
:100C580080B58AB000AF78603960386800F06AF90A
:100C680087ED090A7B681B689BB2C3F30A037B8480
:100C78007B8C1846FFF788FF03463B733B7B012BB1
:100C88005FD07B8C1846FFF7B2FF03467B737B7BF4
:100C9800022B58D17B8C1846FFF787FF0346FB735E
:100CA800FB7B002B06D17B8C1846FFF7B1FF034670
:100CB8007B7405E07B8C1846FFF7AAFF03463B745C
:100CC800244B1B68FB61234B9B68BB61214B5B6812
:100CD8007B617B8C1846FFF779FF0346BB73BB7BB0
:100CE800012B27D17B8C1846FFF7A3FF0346DBB205
:100CF800BB74BB7C002B07D107F10C033A6819467B
:100D0800F86900F029F821E0BB7C012B07D107F135
:100D18000C033A681946786900F01EF816E0BB7CA7
:100D2800022B12D107F10C033A681946B86900F092
:100D380013F80BE007F10C033968184600F05CF86B
:100D480004E000BF02E000BF00E000BF2837BD4656
:100D580080BD00BFFC06002080B586B000AFF860FB
:100D6800B9607A60786800F0E5F887ED050ABB6835
:100D7800DB78002B18D1BB685B79032B32D801A232
:100D880052F823F09D0D0008ED0D0008ED0D000848
:100D9800A50D0008F86801F0B9FA26E097ED050AF4
:100DA800F86800F041F820E0BB681B79013B062B8E
:100DB8001AD801A252F823F0F10D0008F10D00082D
:100DC800F10D0008F10D0008F10D0008F10D000803
:100DD800DD0D0008074B3B6197ED040AB86800F089
:100DE80037F802E000BF00E000BF00BF1837BD467B
:100DF80080BD00BF00008A4280B584B000AF786033
:100E080039607B685B79002B07D0032B07D13868E2
:100E180000F0ACF80346FB8102E000BF00E000BF31
:100E280000BF1037BD4680BD80B582B000AF786086
:100E380087ED000A3868FFF74FFB02460B4643EC84
:100E4800102B786801F09AFB00BF0837BD4680BDBB
:100E580080B58EB000AF786087ED000A0023FB866E
:100E68007B68DB78012B02D17B681B7901E07B680A
:100E78005B7987F83530FB8E43F48063FB867B68AB
:100E88005B781BB2DB011BB2DBB21AB2B7F93630A2
:100E980013431BB2FB867B689B781BB21B021BB2F9
:100EA80003F480731AB2B7F9363013431BB2FB86CA
:100EB8007B68DB781BB25B021BB203F400731AB2C7
:100EC800B7F9363013431BB2FB867B681B791BB21C
:100ED8001B011BB203F070031AB2B7F93630134383
:100EE8001BB2FB867B689B791BB203F00F031AB217
:100EF800B7F9363013431BB2FB863B68BB60082347
:100F0800FB6100237B610023BB61FB8E3B6107F122
:100F1800080207F110031946054803F01FFC0346B1
:100F2800002B01D001F0C4F900BF3837BD4680BDA1
:100F3800EC00002080B485B000AF78607B681B7837
:100F48003B727B685B787B727B689B78BB727B6843
:100F5800DB78FB72BB68FB60FB6807EE903AB0EE8B
:100F6800670A1437BD465DF8047B704780B483B0C8
:100F780000AF7860002318460C37BD465DF8047B47
:100F8800704780B483B000AF78607B6801229A759F
:100F980000BF0C37BD465DF8047B704780B582B052
:100FA80000AF78600121786801F016FA9FED040A15
:100FB800786801F0CFF900BF0837BD4680BD00BF93
:100FC8000000A04280B485B000AFF860B9607A60D4
:100FD800FB68BA681A60FB687A685A60FB68002286
:100FE8009A60FB680022DA6000BF1437BD465DF8DE
:100FF800047B704780B483B000AF786039607B6849
:101008003A689A6000BF0C37BD465DF8047B7047AC
:1010180080B483B000AF78607B689B6818460C3753
:10102800BD465DF8047B704780B485B000AF78603A
:1010380039607B685A687B681B68D90F0B445B1062
:101048005B4213443A68D31AFB60FB6807EE903A98
:10105800F8EEE76A7B681B6807EE903AB8EEE77A25
:10106800C6EE877A9FED077A67EE877AC7ED027A30
:10107800BB6807EE903AB0EE670A1437BD465DF8D4
:10108800047B70470000B44380B586B000AFF860B9
:1010980087ED000B9FED1A1B97ED000B06F03EFF46
:1010A80053EC102B10461946FFF71EFD07EE900A69
:1010B800F0EEE77AC7ED057AFB685A68FB681B68AB
:1010C800D90F0B445B105B4213443B61D7ED057AA3
:1010D800DFED0D6A87EEA67AFB681B6807EE903A8B
:1010E800F8EEE77A67EE277AFDEEE77A17EE902AB0
:1010F8003B69134418461837BD4680BDAFF30080DE
:1011080000000000008076400000B44380B582B043
:1011180000AF78607B689B685A687B685B685A6236
:101128007B689B684FF08042526A92B2114618461B
:10113800FFF760FF012318460837BD4680BD80B51C
:1011480084B000AF78607B689B685A687B689B684E
:101158001B68D90F0B445B105B421344FB607B6830
:101168009B68F9681846FFF745FF012318461037B2
:10117800BD4680BD80B584B000AF78607B689B6851
:101188005A687B689B681B68D90F0B445B105B42ED
:101198001344FB607B689B68F9681846FFF72AFFD1
:1011A800012318461037BD4680BD80B582B000AF18
:1011B80078607B689B685A687B685B685A627B6862
:1011C8009B684FF08042526A92B211461846FFF768
:1011D80011FF012318460837BD4680BD00000000F6
:1011E80080B5C0B006AF01F03AFE00F061FA00F039
:1011F800F9FE00F0A7FA00F01DFB00F0A3FB00F0D9
:1012080035FC00F081FC00F02BFD00F013FE00F02F
:10121800C1FE00F057FB00F0CDFC00F077FD07F1B0
:1012280038034CF250324FF401411846FFF7CAFE1A
:1012380007F128034CF250324FF401411846FFF7EA
:10124800C1FE07F118034CF250324FF40141184621
:10125800FFF7B8FE07F1380307F18800052204926A
:101268003222039202220292CD4A01920022009277
:10127800CC4ACD4901F022F807F1280307F14800CC
:10128800052204923222039280220292C74A0192D6
:1012980002220092C64AC74901F010F807F1180364
:1012A80007F1680005220492322203920422029276
:1012B8004FF09042019201220092BF4ABF4900F0CC
:1012C800FDFFBF4A07F188031360BD4A07F14803D1
:1012D8005360BB4A07F1680393603C21B94805F0A5
:1012E80049FC3C21B84805F045FC3C21B74805F0CD
:1012F80041FC0021B64806F095FB0021B54806F0F0
:1013080091FB0021B44806F08DFBD7F88C304AF2E7
:1013180010325A62FB6C4AF210325A62FB6E4AF281
:1013280010325A6207F188030021184601F036F896
:1013380007F168030021184601F030F807F1480367
:101348000021184601F02AF807F188030121184600
:1013580001F042F807F168030121184601F03CF852
:1013680007F148030121184601F036F807F1380360
:101378004AF210311846FFF73DFE07F128034AF2FA
:1013880010311846FFF736FE07F118034AF21031FC
:101398001846FFF72FFE07F188039FED7F0B1846CD
:1013A80001F0ECF807F168039FED7B0B184601F09C
:1013B800E5F807F148039FED780B184601F0DEF8D1
:1013C80007F188031846FFF7DCFD07F148031846C4
:1013D800FFF7D7FD07F168031846FFF7D2FD002392
:1013E8003B6000237B6000233B6100237B61022379
:1013F800BB600123FB603B461946784803F02CF993
:10140800764803F083F900220121744803F0F2FAC8
:101418000346002B01D000F04BFF0023C7F8E4304F
:101428000023C7F8E0300023C7F8DC300023C7F8F2
:10143800D8300023C7F8D4300023C7F8D0300023B1
:10144800C7F8CC300023C7F8C830654B1B68002BA1
:101458000FD0634B00221A604FF48071534803F099
:10146800E5FF60496048FFF7F3FB4FF47A7001F03D
:1014780067FD5E4B1B68002B10D02021484803F005
:10148800A5FF0346C7F8C430D7F8C430002B02D1F3
:101498000123C7F8D430554B00221A60D7F8D4304E
:1014A800002B1ED020213E4803F090FF0346C7F8CA
:1014B800C030D7F8E4305B00D7F8C0201343C7F832
:1014C800E430D7F8E430B3F1FF3F0AD10023C7F87E
:1014D800D4300023C7F8E43007F168031846FFF753
:1014E80015FE434B1B68002B10D010212C4803F02D
:1014F8006DFF0346C7F8BC30D7F8BC30002B02D1CB
:101508000123C7F8D0303A4B00221A60D7F8D03000
:10151800002B1ED01021224803F058FF0346C7F8BD
:10152800B830D7F8E0305B00D7F8B8201343C7F8D5
:10153800E030D7F8E030B3F1FF3F0AD10023C7F815
:10154800D0300023C7F8E03007F168031846FFF7EA
:10155800F6FD284B1B68002B11D04FF4006113488F
:1015680003F034FF0346C7F8B430D7F8B430002B83
:1015780002D10123C7F8CC301E4B00221A60D7F8DD
:10158800CC30002B52D04FF40061084803F01EFF06
:10159800034631E0AFF300800000000000805640B1
:1015A80000040048000400400050014000080048C2
:1015B8000008004000340140000C0040002C0140AD
:1015C800FC0600203C02002088020020D4020020F3
:1015D800A4010020200300206C030020EC00002060
:1015E80008070020BC060020940600200C070020F5
:1015F8001007002014070020C7F8B030D7F8DC30F7
:101608005B00D7F8B0201343C7F8DC30D7F8DC30DC
:10161800B3F1FF3F0AD10023C7F8CC300023C7F845
:10162800DC3007F148031846FFF7A4FD1E4B1B6882
:10163800002B11D04FF480611C4803F0C7FE03460D
:10164800C7F8AC30D7F8AC30002B02D10123C7F86B
:10165800C830154B00221A60D7F8C830002B3FF469
:10166800F4AE4FF48061114803F0B0FE0346C7F8AA
:10167800A830D7F8D8305B00D7F8A8201343C7F8AC
:10168800D830D7F8D830B3F1FF3F7FF4DEAE00236F
:10169800C7F8C8300023C7F8D83007F188031846C0
:1016A800FFF783FDD1E600BF1807002000080048B7
:1016B80080B594B000AF07F118033822002118460E
:1016C80006F0FAFB3B1D00221A605A609A60DA6045
:1016D8001A614FF4007004F005F90123BB614FF45F
:1016E8008033FB6102237B630323BB630123FB631A
:1016F80012233B6402237B640623BB640423FB643C
:1017080007F11803184604F0A1F90346002B01D08D
:1017180000F0CEFD0F237B600323BB600023FB603A
:1017280000233B6100237B613B1D0221184604F026
:101738009FFC0346002B01D000F0BAFD00BF5037D4
:10174800BD4680BD80B58CB000AF07F124030022F0
:101758001A605A609A603B1D20220021184606F044
:10176800ABFB324B4FF0A0421A60304B4FF40032C3
:101778005A602E4B00229A602C4B0022DA602B4BC9
:1017880000221A61294B00225A61284B04229A61CF
:10179800264B00221A77254B00225A77234B012229
:1017A8001A62224B002283F82420204B0022DA629E
:1017B8001E4B00221A631D4B002283F838201B4B56
:1017C8000022DA63194B002283F84020174801F001
:1017D800AFFD0346002B01D000F06AFD00237B62B9
:1017E80007F124031946114802F0C4FB0346002BF5
:1017F80001D000F05DFD0E4B7B600623BB6000232B
:10180800FB607F233B6104237B610023BB613B1D9D
:101818001946064801F048FF0346002B01D000F0A6
:1018280047FD00BF3037BD4680BD00BF80000020A7
:101838008000501D80B500AF204B214A1A601F4B15
:1018480000225A601D4B4FF440729A601B4B0022D5
:10185800DA601A4B01221A74184B01225A74174B7A
:1018680000229A74154B02225A61144B03229A6182
:10187800124B0D22DA61114B02221A620F4B05221C
:101888005A620E4B03229A620C4B0D22DA620B4B02
:1018980001221A63094B01225A63084B00229A63FA
:1018A800064B0022DA63054802F07CFD0346002B54
:1018B80001D000F0FDFC00BF80BD00BFEC0000209F
:1018C8000068004080B500AF1B4B1C4A1A601A4BD9
:1018D8001B4A5A60184B00229A60174B0122DA60A3
:1018E800154B00221A61144B00225A61124B002238
:1018F8009A61114B0022DA610F4B00221A620E48DE
:1019080003F0C6FD0346002B01D000F0D1FC0021F6
:10191800094803F058FE0346002B01D000F0C8FC2C
:101928000021054803F09AFE0346002B01D000F081
:10193800BFFC00BF80BD00BF500100200078004000
:10194800CC8DC11080B598B000AF07F154030022C8
:101958001A605A609A6007F1380300221A605A60C8
:101968009A60DA601A615A619A613B1D342200213B
:10197800184606F0A1FA3B4B3B4A1A60394B002245
:101988005A60384B00229A60364B4FF6FF72DA6085
:10199800344B00221A61334B00225A61314B00222A
:1019A8009A61304804F0E9FF0346002B01D000F0AB
:1019B8007FFC00237B650023BB650023FB6507F1E3
:1019C80054031946274806F0EFF80346002B01D0C8
:1019D80000F06EFC6023BB630023FB6300233B64C1
:1019E80000237B640023BB640023FB6400233B6566
:1019F80007F13803002219461A4805F049F9034649
:101A0800002B01D000F054FC00237B600023BB6056
:101A18000023FB6000233B6100237B614FF40053EC
:101A2800BB610023FB6100233B6200237B624FF014
:101A38000073BB620023FB6200233B6300237B63CC
:101A48003B1D1946074806F045F90346002B01D00F
:101A580000F02EFC034801F04FF800BF6037BD4688
:101A680080BD00BFA4010020002C014080B588B0D3
:101A780000AF07F1100300221A605A609A60DA601A
:101A88003B1D00221A605A609A601E4B4FF080423C
:101A98001A601C4B00225A601A4B00229A60194B9C
:101AA8004FF0FF32DA60174B00221A61154B002203
:101AB8009A61144804F00AFF0346002B01D000F095
:101AC800F7FB4FF480533B6107F1100319460D48AB
:101AD80005F0F2F90346002B01D000F0E9FB0023E2
:101AE8007B600023FB603B1D1946064806F05CF846
:101AF8000346002B01D000F0DBFB00BF2037BD46BA
:101B080080BD00BFF001002080B58CB000AF07F1A8
:101B18000C0324220021184606F0CEF93B46002289
:101B28001A605A609A60214B214A1A601F4B0022A2
:101B38005A601E4B00229A601C4B4FF6FF72DA6007
:101B48001A4B00221A61194B00229A610123FB608B
:101B580000233B6101237B610023BB610023FB6100
:101B680000233B6201237B620023BB620023FB62EC
:101B780007F10C0319460D4804F056FF0346002BE5
:101B880001D000F095FB00233B600023BB603B467F
:101B98001946064806F008F80346002B01D000F065
:101BA80087FB00BF3037BD4680BD00BF3C02002028
:101BB8000004004080B58CB000AF07F10C0324226C
:101BC8000021184606F078F93B4600221A605A6050
:101BD8009A60214B214A1A601F4B00225A601E4B03
:101BE80000229A601C4B4FF6FF72DA601A4B0022F3
:101BF8001A61194B00229A610123FB6000233B61A3
:101C080001237B610023BB610023FB6100233B624E
:101C180001237B620023BB620023FB6207F10C03F4
:101C280019460D4804F000FF0346002B01D000F0D0
:101C38003FFB00233B600023BB603B461946064838
:101C480005F0B2FF0346002B01D000F031FB00BFC6
:101C58003037BD4680BD00BF880200200008004024
:101C680080B58CB000AF07F10C0324220021184680
:101C780006F022F93B4600221A605A609A60214B0E
:101C8800214A1A601F4B00225A601E4B00229A609C
:101C98001C4B4FF0FF32DA601A4B00221A61194BC5
:101CA80000229A610123FB6000233B6101237B61D1
:101CB8000023BB610023FB6100233B6201237B629D
:101CC8000023BB620023FB6207F10C0319460D4891
:101CD80004F0AAFE0346002B01D000F0E9FA002325
:101CE8003B600023BB603B461946064805F05CFF95
:101CF8000346002B01D000F0DBFA00BF3037BD46A9
:101D080080BD00BFD4020020000C004080B598B010
:101D180000AF07F1540300221A605A609A6007F175
:101D2800380300221A605A609A60DA601A615A61B0
:101D38009A613B1D34220021184606F0BDF83B4B42
:101D48003B4A1A60394B00225A60384B00229A608D
:101D5800364B4FF6FF72DA60344B00221A61334B70
:101D680000225A61314B00229A61304804F005FE86
:101D78000346002B01D000F09BFA00237B6500236B
:101D8800BB650023FB6507F154031946274805F096
:101D98000BFF0346002B01D000F08AFA6023BB63D7
:101DA8000023FB6300233B6400237B640023BB64A4
:101DB8000023FB6400233B6507F138030022194622
:101DC8001A4804F065FF0346002B01D000F070FAB2
:101DD80000237B600023BB600023FB6000233B6182
:101DE80000237B614FF40053BB610023FB61002398
:101DF8003B6200237B624FF00073BB620023FB62EF
:101E080000233B6300237B633B1D1946074805F00D
:101E180061FF0346002B01D000F04AFA034800F0A6
:101E28006BFE00BF6037BD4680BD00BF20030020A9
:101E38000034014080B59CB000AF07F16003002278
:101E48001A605A609A60DA6007F1540300221A6037
:101E58005A609A6007F1380300221A605A609A6043
:101E6800DA601A615A619A613B1D342200211846D2
:101E780006F022F8454B464A1A60444B00225A6045
:101E8800424B00229A60414B4FF6FF72DA603F4B9B
:101E980000221A613D4B00225A613C4B00229A6194
:101EA8003A4804F013FD0346002B01D000F000FA75
:101EB8004FF480533B6607F160031946334804F03A
:101EC800FBFF0346002B01D000F0F2F92F4804F085
:101ED80054FD0346002B01D000F0EAF900237B658E
:101EE8000023BB650023FB6507F154031946274807
:101EF80005F05AFE0346002B01D000F0D9F9602303
:101F0800BB630023FB6300233B6400237B64002343
:101F1800BB640023FB6400233B6507F13803002200
:101F280019461A4804F0B4FE0346002B01D000F00D
:101F3800BFF900237B600023BB600023FB60002304
:101F48003B6100237B614FF40053BB610023FB61BD
:101F580000233B6200237B624FF00073BB620023C7
:101F6800FB6200233B6300237B633B1D1946074844
:101F780005F0B0FE0346002B01D000F099F90348A4
:101F880000F0BAFD00BF7037BD4680BD6C0300206D
:101F98000050014080B500AF104B114A1A600F4B3A
:101FA80008221A710D4B02225A710C4B0222DA7167
:101FB8000A4B00221A72094B00225A72074B002260
:101FC8009A72064B0022DA72044803F093FB034628
:101FD800002B01D000F06CF900BF80BDB8030020D1
:101FE800005C004080B58AB000AF07F114030022FE
:101FF8001A605A609A60DA601A617F4BDB6C7E4A1D
:1020080043F00403D3647C4BDB6C03F004033B61B3
:102018003B69794BDB6C784A43F02003D364764BF9
:10202800DB6C03F02003FB60FB68734BDB6C724ACC
:1020380043F00103D364704BDB6C03F00103BB6016
:10204800BB686D4BDB6C6C4A43F00203D3646A4B8C
:10205800DB6C03F002037B607B68674BDB6C664AD2
:1020680043F00803D364644BDB6C03F008033B6064
:102078003B68002240F23C414FF0904003F0BEF92B
:10208800002202215D4803F0B9F900224FF4C07123
:102098005B4803F0B3F94FF4C0437B614FF48813F6
:1020A800BB610023FB6107F114031946544803F090
:1020B8000BF84FF400437B610023BB610023FB61F5
:1020C80007F1140319464E4802F0FEFF40F23C4364
:1020D8007B610123BB610023FB6100233B6207F1A5
:1020E800140319464FF0904002F0EEFF02237B6183
:1020F8000123BB610023FB6100233B6207F114034A
:1021080019463E4802F0E0FF4FF400437B614FF46C
:102118008813BB610023FB6107F114031946374894
:1021280002F0D2FF4FF4C0737B610123BB6100232F
:10213800FB6100233B6207F114031946304802F0A3
:10214800C3FF4FF400737B610023BB610023FB6175
:1021580007F1140319464FF0904002F0B5FF4FF411
:10216800E0537B614FF48813BB610123FB6107F1E6
:1021780014031946224802F0A7FF04237B614FF499
:102188008813BB610123FB6107F1140319461D483D
:1021980002F09AFF30237B614FF48813BB6101235F
:1021A800FB6107F114031946144802F08DFF002261
:1021B8000021082002F0C1F8082002F0D8F8002217
:1021C80000210A2002F0B9F80A2002F0D0F8002213
:1021D8000021172002F0B1F8172002F0C8F80022F9
:1021E8000021282002F0A9F8282002F0C0F800BF3A
:1021F8002837BD4680BD00BF0010024000040048DB
:1022080000080048000C004880B582B000AF786034
:1022180039603B6803F00103002B0DD0084B094AD5
:102228004021786802F0DEFA0346002B01D000F066
:102238003FF8054B01221A6000BF0837BD4680BD34
:10224800BC060020940600200807002080B483B054
:1022580000AF0346FB80FB88202B03D1104B0122E3
:102268001A6017E0FB88102B03D10E4B01221A606D
:1022780010E0FB88B3F5006F03D10B4B01221A6005
:1022880008E0FB88B3F5806F03D1084B01221A6080
:1022980000E000BF00BF0C37BD465DF8047B704707
:1022A8000C07002010070020140700201807002042
:1022B80080B400AF72B600BF00BFFDE780B485B040
:1022C80000AFF860B9607A603B60FB683A7E1A73C9
:1022D800FB687A685A60FB683A689A60FB68BA6873
:1022E8001A60FB68FA691A61FB683A8C9A82FB6883
:1022F8007A6A9A61FB68BA6ADA61FB6800229A75A1
:1023080000BF1437BD465DF8047B704780B584B0C4
:1023180000AF78600021786800F040F87B689B681F
:102328001846FEF775FEF8607B689B68F9681846E2
:10233800FEF77AFE10EE103A1846FEF7CDF8024680
:102348000B4643EC102B786800F018F900BF1037E3
:10235800BD4680BD80B582B000AF786087ED000AC9
:102368000C4B1B6807EE903AB8EEE77AD7ED006A97
:102378009FED096AC6EE867A67EE277AFDEEE77A60
:1023880017EE901A786800F009F800BF0837BD46C4
:1023980080BD00BF040000200000C84280B483B0A4
:1023A80000AF786039603B68002BB8BF5B423B6088
:1023B800084B1B683A689A4202DD064B1B683B6073
:1023C8007B681B683A685A6300BF0C37BD465DF8E6
:1023D800047B70470400002080B582B000AF7860AD
:1023E80039603B68002B08D07B6818697B689B8A3A
:1023F8000022194603F002F807E07B6818697B6839
:102408009B8A0122194602F0F9FF034A3B681360D0
:1024180000BF0837BD4680BD0000002080B582B0EF
:1024280000AF78603960264A3B6813607B689B6818
:102438001846FEF7EDFD02463B689B1A214A1360D9
:102448007B689B691F4A126803FB02F27B68DB69A1
:102458001C4908681C490968411A01FB03F3134425
:102468001A4A1360194B1B68002B04DA002178689C
:10247800FFF7B2FF03E001217868FFF7ADFF114BCA
:102488001B68114A13600F4B1B6813F1130F0CDB09
:102498000C4B1B68132B08DC00217868FFF77EFFC4
:1024A800094B00221A60012306E0084B1B681946F5
:1024B8007868FFF773FF002318460837BD4680BDCC
:1024C800280700201C0700202407002020070020E0
:1024D80080B588B000AF78607B681B7B002B0FD17C
:1024E8001E4B7B617B69BFF35B8F1B68BFF35B8F00
:1024F8003B613B6919467868FFF790FF034629E07E
:102508007B681B7B012B0FD1154BBB61BB69BFF3EC
:102518005B8F1B68BFF35B8FFB60FB6819467868AD
:10252800FFF77CFF034615E07B681B7B022B0FD16E
:102538000C4BFB61FB69BFF35B8F1B68BFF35B8FC1
:10254800BB60BB6819467868FFF768FF034601E07F
:102558004FF0FF3318462037BD4680BD2C070020BA
:10256800300700203407002080B483B000AF7860C3
:1025780000BF0C37BD465DF8047B704780B58AB054
:1025880000AFF86087ED000BFB681B7B002B13D1B5
:10259800234BFB61FB689B6897ED000B1846FEF721
:1025A80073FD0346BB61BB691A46FB69BFF35B8FCA
:1025B8001A60BFF35B8F2EE0FB681B7B012B13D1E6
:1025C800184B3B62FB689B6897ED000B1846FEF7BB
:1025D8005BFD03467B617B691A463B6ABFF35B8FF1
:1025E8001A60BFF35B8F16E0FB681B7B022B12D1CE
:1025F8000D4B7B62FB689B6897ED000B1846FEF756
:1026080043FD03463B613B691A467B6ABFF35B8F18
:102618001A60BFF35B8F00BF2837BD4680BD00BF7F
:102628002C070020300700203407002080B582B036
:1026380000AF0F4B1B6E0E4A43F0010313660C4BA1
:102648001B6E03F001037B607B68094B9B6D084A96
:1026580043F080539365064B9B6D03F080533B60BA
:102668003B6803F0E3F900BF0837BD4680BD00BFF3
:102678000010024080B59EB000AF786007F1640397
:1026880000221A605A609A60DA601A6107F1100332
:1026980054220021184605F00FFC7B681B68B3F133
:1026A800A04F33D14FF400433B614FF000537B659B
:1026B80007F11003184603F0BBFE0346002B01D0B8
:1026C800FFF7F6FD134BDB6C124A43F40053D36457
:1026D800104BDB6C03F40053FB60FB680D4BDB6CA9
:1026E8000C4A43F00403D3640A4BDB6C03F0040385
:1026F800BB60BB680E237B660323BB660023FB66B7
:1027080007F164031946044802F0DEFC00BF78377D
:10271800BD4680BD001002400008004880B59EB04C
:1027280000AF786007F1640300221A605A609A606B
:10273800DA601A6107F1100354220021184605F0E7
:10274800BBFB7B681B68274A934247D14FF48053F1
:102758003B610023BB6407F11003184603F068FED1
:102768000346002B01D0FFF7A3FD1F4B9B6D1E4AAC
:1027780043F0007393651C4B9B6D03F00073FB6083
:10278800FB68194BDB6C184A43F00203D364164B01
:10279800DB6C03F00203BB60BB684FF440537B66FD
:1027A8000223BB660023FB6600233B6709237B6784
:1027B80007F1640319460D4802F086FC0022002147
:1027C800562001F0BAFD562001F0D1FD002200216B
:1027D800572001F0B2FD572001F0C9FD00BF78373E
:1027E800BD4680BD0068004000100240000400485B
:1027F80080B5A0B000AF786007F16C0300221A60C2
:102808005A609A60DA601A6107F1180354220021AD
:10281800184605F051FB7B681B682E4A934255D138
:102828004FF48073BB610023FB6307F1180318465C
:1028380003F0FEFD0346002B01D0FFF739FD264BC0
:10284800DB6C254A43F00403D364234BDB6C03F0B1
:1028580004037B617B69204BDB6C1F4A43F0010357
:10286800D3641D4BDB6C03F001033B613B694FF400
:102878000073FB6612233B6700237B670023BB675B
:102888000823FB6707F16C031946144802F01CFC87
:102898004FF48073FB6612233B6700237B6700239A
:1028A800BB670223FB6707F16C0319464FF09040A2
:1028B80002F00AFC084B9B6D074A43F0804393657E
:1028C800054B9B6D03F08043FB60FB6800BF8037BE
:1028D800BD4680BD00780040001002400008004856
:1028E80080B485B000AF78607B681B68134A934258
:1028F8000CD1134B1B6E124A43F400631366104B42
:102908001B6E03F40063FB60FB6810E07B681B68C8
:102918000C4A93420BD10A4B1B6E094A43F40053ED
:102928001366074B1B6E03F40053BB60BB6800BF04
:102938001437BD465DF8047B704700BF002C01408A
:10294800001002400034014080B485B000AF7860C8
:102958007B681B68B3F1804F0CD1124B9B6D114AF9
:1029680043F0010393650F4B9B6D03F00103FB607C
:10297800FB6810E07B681B680B4A93420BD1094B3C
:102988001B6E084A43F480131366064B1B6E03F450
:102998008013BB60BB6800BF1437BD465DF8047B7D
:1029A800704700BF001002400050014080B58EB053
:1029B80000AF786007F1240300221A605A609A6019
:1029C800DA601A617B681B68464A934229D1464BF4
:1029D8009B6D454A43F002039365434B9B6D03F09F
:1029E80002033B623B6A404BDB6C3F4A43F0010306
:1029F800D3643D4BDB6C03F00103FB61FB69C0232F
:102A08007B620223BB620023FB6200233B63022339
:102A18007B6307F1240319464FF0904002F054FB02
:102A28005BE07B681B68314A934228D12E4B9B6D33
:102A38002D4A43F0040393652B4B9B6D03F004036D
:102A4800BB61BB69284BDB6C274A43F00203D364A4
:102A5800254BDB6C03F002037B617B69C0237B623F
:102A68000223BB620023FB6200233B6302237B63D8
:102A780007F1240319461E4802F026FB2DE07B6867
:102A88001B681C4A934228D1174B9B6D164A43F08A
:102A980008039365144B9B6D03F008033B613B6986
:102AA800114BDB6C104A43F00103D3640E4BDB6C13
:102AB80003F00103FB60FB6803237B620223BB6214
:102AC8000023FB6200233B6302237B6307F124039B
:102AD80019464FF0904002F0F7FA00BF3837BD466C
:102AE80080BD00BF00040040001002400008004004
:102AF80000040048000C004080B58AB000AF786040
:102B080007F1140300221A605A609A60DA601A61A9
:102B18007B681B68334A93421CD1334BDB6C324AC7
:102B280043F00403D364304BDB6C03F004033B61D4
:102B38003B6901237B610223BB610023FB61002306
:102B48003B6202237B6207F114031946274802F00F
:102B5800BBFA42E07B681B68254A93421CD1224B92
:102B6800DB6C214A43F00403D3641F4BDB6C03F096
:102B78000403FB60FB6840237B610223BB610023E5
:102B8800FB6100233B6204237B6207F114031946AF
:102B9800164802F099FA20E07B681B68154A9342B0
:102BA8001BD1114BDB6C104A43F00203D3640E4B6C
:102BB800DB6C03F00203BB60BB6804237B61022368
:102BC800BB610023FB6100233B6203237B6207F1A7
:102BD80014031946084802F077FA00BF2837BD46A3
:102BE80080BD00BF002C01400010024000080048D2
:102BF80000340140005001400004004880B598B0FE
:102C080000AF786007F10C0354220021184605F044
:102C180053F97B681B68114A93421BD14FF4005348
:102C2800FB604FF00063BB6407F10C03184603F028
:102C3800FFFB0346002B01D0FFF73AFB084B9B6DC7
:102C4800074A43F400039365054B9B6D03F40003A7
:102C5800BB60BB6800BF6037BD4680BD005C0040FC
:102C68000010024080B400AF00BFFDE780B400AFA1
:102C780000BFFDE780B400AF00BFFDE780B400AF40
:102C880000BFFDE780B400AF00BFFDE780B400AF30
:102C980000BFBD465DF8047B704780B400AF00BF3D
:102CA800BD465DF8047B704780B400AF00BFBD46E9
:102CB8005DF8047B704780B500AF00F023F900F0A1
:102CC8005BF800BF80BD80B500AF042002F0C8FBF0
:102CD80000BF80BD80B500AF102002F0C1FB00BF6F
:102CE80080BD80B500AF202002F0BAFB00BF80BDD8
:102CF80080B500AF4FF4806002F0B2FB4FF4006083
:102D080002F0AEFB4FF4805002F0AAFB4FF40050E3
:102D180002F0A6FB4FF4804002F0A2FB4FF4004003
:102D280002F09EFB00BF80BD80B500AF024801F0F5
:102D380047FF00BF80BD00BFEC00002080B500AF9A
:102D4800024801F03DFF00BF80BD00BFEC0000203D
:102D580080B400AF064BD3F88830054A43F47003BB
:102D6800C2F8883000BFBD465DF8047B704700BFDD
:102D780000ED00E00000000080B582B000AF002345
:102D88007B6033E0204A7B6852F823303B603B6825
:102D98009B7D012B04D19FED1A0B3868FFF7EEFBE2
:102DA8003B6802229A753B689B7D022B0ED0022B52
:102DB8000FDC002B02D0012B04D00AE03868FFF7A3
:102DC80087FB06E03868FEF7E9F802E0FFF7CCFB7E
:102DD80000BF3B689B684FF08042526A92B211462E
:102DE8001846FEF707F97B6801337B607B68022B86
:102DF800C8DD00BF00BF0837BD4680BDAFF3008007
:102E08000000000000805640FC0600200D48854662
:102E1800FFF79EFF0C480D490D4A002302E0D458E5
:102E2800C4500433C4188C42F9D30A4A0A4C00230C
:102E380001E013600432A242FBD305F04BF8FEF721
:102E4800CFF9FEE700000220000000206400002007
:102E5800E08100086400002074080020FEE780B5C7
:102E680082B000AF0023FB71032001F05BFA0F2052
:102E780000F00EF80346002B02D00123FB7101E09D
:102E8800FFF7D4FBFB7918460837BD4680BD000024
:102E980080B584B000AF78600023FB73164B1B68C5
:102EA800002B22D0154B1A68134B1B684FF47A710C
:102EB800B1FBF3F3B2FBF3F3184601F066FA0346ED
:102EC800002B0FD17B680F2B09D8002279684FF0AF
:102ED800FF3001F032FA0A4A7B68136007E00123E9
:102EE800FB7304E00123FB7301E00123FB73FB7B0D
:102EF80018461037BD4680BD10000020080000208D
:102F08000C00002080B400AF054B1A68054B1B6805
:102F18001344034A136000BFBD465DF8047B704745
:102F2800380700201000002080B400AF034B1B6856
:102F38001846BD465DF8047B704700BF380700207F
:102F480080B584B000AF7860FFF7EEFFB8607B68AB
:102F5800FB60FB68B3F1FF3F04D0094B1B68FA68BC
:102F68001344FB6000BFFFF7DFFF0246BB68D31ABC
:102F7800FA689A42F7D800BF00BF1037BD4680BD37
:102F88001000002080B483B000AF786039607B689F
:102F98009B6823F47C123B681A437B689A6000BFE5
:102FA8000C37BD465DF8047B704780B483B000AF32
:102FB800786039607B689B6823F0E0723B681A434D
:102FC8007B689A6000BF0C37BD465DF8047B70478C
:102FD80080B483B000AF78607B689B6803F0E073CF
:102FE80018460C37BD465DF8047B704780B487B03F
:102FF80000AFF860B9607A603B60FB6860331A46DE
:10300800BB689B0013447B617B691A68084B1340BB
:103018007A6802F0F8413A680A43134343F00042E1
:103028007B691A6000BF1C37BD465DF8047B70479A
:1030380000F0FF0380B485B000AF786039607B682A
:1030480060331A463B689B001344FB60FB681B68AF
:1030580003F0F84318461437BD465DF8047B704703
:1030680080B487B000AFF860B9607A60FB686033FD
:103078001A46BB689B0013447B617B691B6823F07D
:1030880000427B681A437B691A6000BF1C37BD4643
:103098005DF8047B704780B487B000AFF860B96012
:1030A8007A60FB6860331A46BB689B0013447B61F7
:1030B8007B691B6823F080727B681A437B691A60FE
:1030C80000BF1C37BD465DF8047B704780B487B0ED
:1030D80000AFF860B9607A60FB6860331A46BB6875
:1030E8009B0013447B617B691B6823F000727B683B
:1030F8001A437B691A6000BF1C37BD465DF8047B24
:10310800704780B483B000AF786039607B685B69D2
:1031180023F000423B681A437B685A6100BF0C37B2
:10312800BD465DF8047B704780B487B000AFF86097
:10313800B9607A60FB6830331A46BB681B0A9B008B
:1031480003F00C0313447B617B691A68BB6803F0C6
:103158001F031F2101FA03F3DB431A407B689B0E10
:1031680003F01F01BB6803F01F0301FA03F31A43BE
:103178007B691A6000BF1C37BD465DF8047B704749
:1031880080B487B000AFF860B9607A60FB68143328
:103198001A46BB685B0E9B0003F0040313447B6173
:1031A8007B691A68BB681B0D03F01F03072101FA2E
:1031B80003F3DB431A40BB681B0D03F01F03796858
:1031C80001FA03F31A437B691A6000BF1C37BD4636
:1031D8005DF8047B7047000080B485B000AFF860EC
:1031E800B9607A60FB68D3F8B020BB68C3F31203F8
:1031F800DB431A407B6803F018030849D940BB68D1
:103208000B40C3F312031A43FB68C3F8B02000BF96
:103218001437BD465DF8047B704700BFFFFF070009
:1032280080B483B000AF78607B689B6823F020434C
:1032380023F03F037A68936000BF0C37BD465DF802
:10324800047B704780B483B000AF78607B689B686C
:1032580003F00053B3F1005F01D1012300E0002324
:1032680018460C37BD465DF8047B704780B483B0C0
:1032780000AF78607B689B6823F0104323F03F031E
:1032880043F080527B689A6000BF0C37BD465DF8FA
:10329800047B704780B483B000AF78607B689B681C
:1032A80003F08053B3F1805F01D1012300E00023D4
:1032B80018460C37BD465DF8047B704780B483B070
:1032C80000AF78607B689B6803F00103012B01D194
:1032D800012300E0002318460C37BD465DF8047B47
:1032E800704780B483B000AF78607B689B6803F058
:1032F8000403042B01D1012300E0002318460C37F6
:10330800BD465DF8047B704780B483B000AF786039
:103318007B689B6803F00803082B01D1012300E0B8
:10332800002318460C37BD465DF8047B7047000043
:1033380090B589B000AF78600023FB770023FB606D
:103348007B68002B01D10123A9E17B685B69002B15
:103358007B68DB6D002B09D17868FFF78BF97B68F8
:1033680000221A667B68002283F858207B681B6855
:103378001846FFF767FF0346002B04D07B681B68DD
:103388001846FFF74DFF7B681B681846FFF782FF5A
:103398000346002B15D17B681B681846FFF766FFAC
:1033A8009C4B1B689B099C4AA2FB03239B09013386
:1033B8005B00FB6002E0FB68013BFB60FB68002BE5
:1033C800F9D17B681B681846FFF764FF0346002B9A
:1033D8000DD17B68DB6D43F010027B68DA657B6892
:1033E8001B6E43F001027B681A660123FB777B683A
:1033F8001B681846FFF775FF78617B68DB6D03F083
:103408001003002B40F042817B69002B40F03E8185
:103418007B68DB6D23F4817343F002027B68DA6515
:103428007B681B681846FFF749FF0346002B41D10C
:103438007B681B68B3F1A04F04D07B681B68774A90
:1034480093420FD14FF0A040FFF738FF044673486E
:10345800FFF734FF03462343002B0CBF012300234F
:10346800DBB212E06E48FFF729FF04466D48FFF70C
:1034780025FF03461C436C48FFF720FF0346234300
:10348800002B0CBF01230023DBB2002B12D07B687A
:103498001B68B3F1A04F04D07B681B685F4A934256
:1034A80001D1624A00E0624A7B685B6819461046AF
:1034B800FFF768FD7B685B7F5A037B68DB6B1A4309
:1034C8007B68DB681A437B689B681A437B6893F8C0
:1034D80024301B041343BB617B6893F82430012B11
:1034E80006D17B689B6A013B5B04BA691343BB61E5
:1034F8007B68DB6A002B09D07B68DB6A03F478728F
:103508007B681B6B1343BA691343BB617B681B68F9
:10351800DA68484B13407A681268B9690B43D3607C
:103528007B681B681B6923F040617B685A6B7B686A
:103538001B680A431A617B681B681846FFF7E4FE9C
:1035480038617B69002B7FD13B69002B7CD17B687C
:103558001B7F9A037B6893F838305B001343BB6189
:103568007B681B68DB6823F4804323F002037A68D6
:103578001268B9690B43D3607B681B69002B17D0AD
:103588007B681B681A697B681B6842F480321A6181
:103598007B681B68D3F8C03023F47F5323F03F03C4
:1035A8007A6811697A6812680B43C2F8C03013E070
:1035B8007B681B681A697B681B6822F480321A6171
:1035C8007B681B68D3F8C0307A68126823F47F538D
:1035D80023F03F03C2F8C0307B6893F84030012BDA
:1035E8002AD17B681B681B6923F4FF6323F004035B
:1035F8007A68516C7A68926C11437A68D26C11437C
:103608007A68126D0A431A437B681B6842F001020C
:103618001A6119E008000020632D3E0500010050E2
:103628000004005000050050000600500003005040
:10363800000700500740F0FF7B681B681A697B6829
:103648001B6822F001021A617B685B69012B0CD1AF
:103658007B681B681B6B23F00F017B681B6A5A1E73
:103668007B681B680A431A6307E07B681B681A6B50
:103678007B681B6822F00F021A637B68DB6D23F0FE
:10368800030343F001027B68DA6507E07B68DB6DC2
:1036980043F010027B68DA650123FB77FB7F18464D
:1036A8002437BD4690BD00BF80B5B6B000AF786086
:1036B8003960002387F8D7300023FB607B6893F8D4
:1036C8005830012B02D1022300F013BC7B68012281
:1036D80083F858207B681B681846FFF702FE0346EC
:1036E800002B40F0F3837B6818683B6859683B6897
:1036F8001B681A46FFF718FD7B681B681846FFF71A
:10370800F0FDC7F8D0007B681B681846FFF7FCFD82
:10371800C7F8CC00D7F8D030002B40F0D981D7F8C3
:10372800CC30002B40F0D4813B689B68B3F1004F4C
:103738000FD17B6818683B681B6800221946FFF7A1
:103748001FFD7B681B684FF000411846FFF7D9FC46
:103758000EE07B6818683B6819683B689B681A46E6
:10376800FFF70EFD7B681B6800211846FFF7C9FCB0
:103778003B685A697B681B68DB68DB0803F0030356
:103788005B0002FA03F3C7F8C8303B681B69042BD7
:1037980022D07B6818683B6819693B681A68D7F8B3
:1037A800C830FFF723FC7B6818683B6819693B68D9
:1037B8009B691A46FFF76FFC7B6818683B681969B4
:1037C8003B681B7F012B02D14FF0007300E0002300
:1037D8001A46FFF77BFC7BE17B681B6800211846D3
:1037E800FFF728FC0346C3F31203002B0AD17B68BA
:1037F8001B6800211846FFF71DFC03469B0E03F0CB
:103808001F021EE07B681B6800211846FFF712FCA8
:103818000346C7F8BC30D7F8BC3093FAA3F3C7F80F
:10382800C030D7F8C030C7F8B830D7F8B830002B58
:1038380001D1202304E0D7F8B830B3FA83F3DBB220
:103848001A463B681B68C3F31203002B05D13B687B
:103858001B689B0E03F01F0318E03B681B68C7F842
:10386800B030D7F8B03093FAA3F3C7F8AC30D7F834
:10387800AC30C7F8B430D7F8B430002B01D12023CE
:1038880004E0D7F8B430B3FA83F3DBB29A4206D136
:103898007B681B68002200211846FFF7E1FB7B6864
:1038A8001B6801211846FFF7C5FB0346C3F3120343
:1038B800002B0AD17B681B6801211846FFF7BAFB69
:1038C80003469B0E03F01F021EE07B681B68012164
:1038D8001846FFF7AFFB0346C7F8A430D7F8A43063
:1038E80093FAA3F3C7F8A030D7F8A030C7F8A830E8
:1038F800D7F8A830002B01D1202304E0D7F8A8304E
:10390800B3FA83F3DBB21A463B681B68C3F31203AE
:10391800002B05D13B681B689B0E03F01F0318E0C2
:103928003B681B68C7F89830D7F8983093FAA3F328
:10393800C7F89430D7F89430C7F89C30D7F89C3043
:10394800002B01D1202304E0D7F89C30B3FA83F38D
:10395800DBB29A4206D17B681B6800220121184617
:10396800FFF77EFB7B681B6802211846FFF762FBA6
:103978000346C3F31203002B0AD17B681B6802219C
:103988001846FFF757FB03469B0E03F01F021EE085
:103998007B681B6802211846FFF74CFB0346C7F8F3
:1039A8008C30D7F88C3093FAA3F3C7F88830D7F85F
:1039B8008830C7F89030D7F89030002B01D12023F9
:1039C80004E0D7F89030B3FA83F3DBB21A463B68C9
:1039D8001B68C3F31203002B05D13B681B689B0EC1
:1039E80003F01F0316E03B681B68C7F88030D7F860
:1039F800803093FAA3F3FB67FB6FC7F88430D7F8DE
:103A08008430002B01D1202304E0D7F88430B3FAA6
:103A180083F3DBB29A4206D17B681B68002202213D
:103A28001846FFF71DFB7B681B6803211846FFF744
:103A380001FB0346C3F31203002B0AD17B681B6802
:103A480003211846FFF7F6FA03469B0E03F01F0200
:103A580017E07B681B6803211846FFF7EBFA03465B
:103A68007B677B6F93FAA3F33B673B6FBB67BB6FC7
:103A7800002B01D1202303E0BB6FB3FA83F3DBB241
:103A88001A463B681B68C3F31203002B05D13B6839
:103A98001B689B0E03F01F0311E03B681B68BB66A5
:103AA800BB6E93FAA3F37B667B6EFB66FB6E002B03
:103AB80001D1202303E0FB6EB3FA83F3DBB29A4211
:103AC80006D17B681B68002203211846FFF7C8FA55
:103AD8007B681B681846FFF7F1FB0346002B40F094
:103AE8003D817B6818683B6819683B68DB681A4643
:103AF800FFF772FB3B68DB68A24A934240F02E81D5
:103B08007B6818683B681B68C3F31203002B0BD152
:103B18003B681B689B0E013303F01F03092B94BFFE
:103B280001230023DBB219E03B681B68FB65FB6DD2
:103B380093FAA3F3BB65BB6D3B663B6E002B01D1CB
:103B4800202303E03B6EB3FA83F3DBB2013303F0C7
:103B58001F03092B94BF01230023DBB2002B79D06C
:103B68003B681B68C3F31203002B07D13B681B6833
:103B78009B0E01339B0603F0F84215E03B681B6877
:103B88003B653B6D93FAA3F3FB64FB6C7B657B6D34
:103B9800002B01D1202303E07B6DB3FA83F3DBB262
:103BA80001339B0603F0F8423B681B68C3F312031A
:103BB800002B09D13B681B689B0E013303F01F03E0
:103BC800012101FA03F317E03B681B687B647B6CF7
:103BD80093FAA3F33B643B6CBB64BB6C002B01D131
:103BE800202303E0BB6CB3FA83F3DBB2013303F0A9
:103BF8001F03012101FA03F342EA03013B681B6832
:103C0800C3F31203002B0AD13B681B689B0E0133D8
:103C180003F01F0213465B0013441B0518E03B68C2
:103C28001B68BB63BB6B93FAA3F37B637B6BFB6380
:103C3800FB6B002B01D1202303E0FB6BB3FA83F36A
:103C4800DBB2013303F01F0213465B0013441B056C
:103C58000B437EE03B681B68C3F31203002B07D1BC
:103C68003B681B689B0E01339B0603F0F84215E086
:103C78003B681B68FB62FB6A93FAA3F3BB62BB6AEF
:103C88003B633B6B002B01D1202303E03B6BB3FA72
:103C980083F3DBB201339B0603F0F8423B681B68F1
:103CA800C3F31203002B09D13B681B689B0E013339
:103CB80003F01F03012101FA03F317E03B681B68B7
:103CC8003B623B6A93FAA3F3FB61FB697B627B6A05
:103CD800002B01D1202303E07B6AB3FA83F3DBB224
:103CE800013303F01F03012101FA03F342EA030140
:103CF8003B681B68C3F31203002B0DD13B681B689C
:103D08009B0E013303F01F0213465B0013441E3B56
:103D18001B0543F000731BE03B681B687B617B69F4
:103D280093FAA3F33B613B69BB61BB69002B01D1EB
:103D3800202303E0BB69B3FA83F3DBB2013303F05A
:103D48001F0213465B0013441E3B1B0543F0007320
:103D58000B433A6892681946FFF712FA3B681A68EB
:103D6800094B1340002B00F0BE807B681B68B3F141
:103D7800A04F04D07B681B68044A93420AD1044BC5
:103D880009E000BF00007F400000088000010050EB
:103D980000030050594B1846FFF71AF9C7F8C4003A
:103DA8003B681B68564A934204D03B681B68554AD7
:103DB80093423AD1D7F8C43003F40003002B34D12E
:103DC8007B681B68B3F1A04F05D07B681B684E4A1F
:103DD800934240F085807B681B68B3F1A04F04D004
:103DE8007B681B68494A934201D1494A00E0434A2B
:103DF800D7F8C43043F4000319461046FFF7D5F846
:103E0800444B1B689B09444AA2FB03239B095A1C89
:103E180013465B0013449B00FB6002E0FB68013B18
:103E2800FB60FB68002BF9D15AE03B681B683B4AF2
:103E3800934225D1D7F8C43003F08073002B1FD1EB
:103E48007B681B68314A934204D17B681B68344AFB
:103E5800934247D07B681B68B3F1A04F04D07B68BE
:103E68001B682A4A934201D1294A00E0234AD7F81D
:103E7800C43043F0807319461046FFF796F831E0D6
:103E88003B681B68274A93422DD1D7F8C43003F406
:103E98008003002B27D17B681B681C4A934222D0E1
:103EA8007B681B68B3F1A04F04D07B681B68174A76
:103EB800934201D1164A00E0104AD7F8C43043F4BF
:103EC800800319461046FFF770F80CE07B68DB6D3D
:103ED80043F020027B68DA65012387F8D73002E0D7
:103EE80000BF00E000BF7B68002283F8582097F8E5
:103EF800D7301846D837BD4680BD00BF00070050F0
:103F0800000021C31000C0900006005000010050BE
:103F18000003005008000020632D3E05000052C732
:103F280000050050000084CB80B483B000AF7860F7
:103F38007B689B6803F00103012B01D1012300E09A
:103F4800002318460C37BD465DF8047B704780B4E3
:103F580083B000AF78607B689B6803F00403042B90
:103F680001D1012300E0002318460C37BD465DF857
:103F7800047B704790B5A1B000AF7860396000232A
:103F880087F87F307B6893F85830012B01D10223E2
:103F9800E7E07B68012283F8582000237B66002332
:103FA800BB667B681B68B3F1A04F02D16F4BBB6047
:103FB80009E07B681B686E4A934202D16D4BBB6077
:103FC80001E00023BB60BB68002B0BD17B68DB6D75
:103FD80043F020027B68DA657B68002283F858206A
:103FE8000123BEE0BB681846FFF7B1FFB8677B68DE
:103FF8001B681846FFF7ABFF0346002B40F0A08074
:10400800BB6F002B40F09C807B681B68B3F1A04F0E
:1040180004D07B681B68554A934201D1564B00E097
:10402800564B7B673B681B68002B4BD07B6F9B68AC
:1040380023F460423B6859687B6893F838305B0327
:104048000B431A437B6F9A607B681B68B3F1A04FE0
:1040580004D07B681B68454A93420FD14FF0A040BB
:10406800FFF762FF04464148FFF75EFF034623431C
:10407800002B0CBF01230023DBB212E03C48FFF702
:1040880053FF04463B48FFF74FFF03461C433C4899
:10409800FFF74AFF03462343002B0CBF01230023ED
:1040A800DBB2002B56D07B6F9B6823F4716323F03F
:1040B8000F033A6811683A6892680A431A437B6F9B
:1040C8009A6047E07B6F9B6823F460427B6F9A603D
:1040D8007B681B68B3F1A04F04D07B681B68234A38
:1040E80093420FD14FF0A040FFF71EFF04461F4830
:1040F800FFF71AFF03462343002B0CBF01230023BD
:10410800DBB212E01A48FFF70FFF04461948FFF721
:104118000BFF03461C431A48FFF706FF03462343D9
:10412800002B0CBF01230023DBB2002B12D07B6FC6
:104138009B6823F4716323F00F037A6F936009E09F
:104148007B68DB6D43F020027B68DA65012387F822
:104158007F3000E000BF7B68002283F8582097F882
:104168007F3018468437BD4690BD00BF000100501F
:1041780000040050000500500003005000070050E4
:104188000006005080B485B000AF78607B6803F00B
:104198000703FB600C4BDB68BB60BA684FF6FF0394
:1041A8001340BB60FB681A02BB68134343F0BF634C
:1041B80043F40033BB60044ABB68D36000BF1437C4
:1041C800BD465DF8047B704700ED00E080B400AFA9
:1041D800044BDB681B0A03F007031846BD465DF86D
:1041E800047B704700ED00E080B483B000AF034665
:1041F800FB7197F90730002B0BDBFB7903F01F02EB
:10420800074997F907305B09012000FA02F241F8E3
:10421800232000BF0C37BD465DF8047B704700BF04
:1042280000E100E080B483B000AF03463960FB7161
:1042380097F90730002B0ADB3B68DAB20C4997F98B
:1042480007301201D2B20B4483F800230AE03B681E
:10425800DAB20849FB7903F00F03043B1201D2B22A
:104268000B441A7600BF0C37BD465DF8047B7047D7
:1042780000E100E000ED00E080B489B000AFF86034
:10428800B9607A60FB6803F00703FB61FB69C3F15F
:104298000703042B28BF0423BB61FB690433062BE7
:1042A80002D9FB69033B00E000237B614FF0FF323A
:1042B800BB6902FA03F3DA43BB681A407B699A4088
:1042C8004FF0FF317B6901FA03F3D9437B680B4058
:1042D800134318462437BD465DF8047B7047000039
:1042E80080B582B000AF78607B68013BB3F1807F16
:1042F80001D301230FE00A4A7B68013B53600F2179
:104308004FF0FF30FFF78EFF054B00229A60044BF9
:1043180007221A60002318460837BD4680BD00BF33
:1043280010E000E080B582B000AF78607868FFF7F1
:1043380029FF00BF0837BD4680BD80B586B000AFF5
:104348000346B9607A60FB73FFF740FF78617A68CB
:10435800B9687869FFF790FF024697F90F30114660
:104368001846FFF75FFF00BF1837BD4680BD80B510
:1043780082B000AF0346FB7197F907301846FFF784
:1043880033FF00BF0837BD4680BD80B582B000AF9F
:1043980078607868FFF7A4FF034618460837BD46DB
:1043A80080BD000080B584B000AF78607B68002BCA
:1043B80001D1012347E17B6893F85C30DBB2002B25
:1043C80006D17B68002283F85D207868FEF7A6F99D
:1043D8007B681B689A697B681B6822F010029A61E7
:1043E800FEF7A2FDF86012E0FEF79EFD0246FB68AC
:1043F800D31A0A2B0BD97B681B6E43F001027B682A
:104408001A667B68032283F85C2001231BE17B6822
:104418001B689B6903F00803082BE5D07B681B68C1
:104428009A697B681B6842F001029A61FEF77CFD7D
:10443800F86012E0FEF778FD0246FB68D31A0A2BF3
:104448000BD97B681B6E43F001027B681A667B6898
:10445800032283F85C200123F5E07B681B689B69D5
:1044680003F00103002BE5D07B681B689A697B6821
:104478001B6842F002029A617B681B68744A934287
:1044880003D1744A7B685B6813607B681B7C012BD3
:1044980008D17B681B689A697B681B6822F0400218
:1044A8009A6107E07B681B689A697B681B6842F021
:1044B80040029A617B685B7C012B08D17B681B6892
:1044C8009A697B681B6842F480429A6107E07B68BE
:1044D8001B689A697B681B6822F480429A617B6832
:1044E8009B7C012B08D17B681B689A697B681B68D9
:1044F80022F480529A6107E07B681B689A697B689E
:104508001B6842F480529A617B681B689B6923F49C
:1045180040717B689A687B681B680A439A617B686C
:104528001B689A697B681B6822F0A4029A617B6801
:104538001B681A697B681B6822F010021A617B6885
:10454800DB68012B08D17B681B689A697B681B684C
:1045580042F004029A612CE07B68DB68002B28D0CB
:104568007B68DB68022B1CD07B681B689A697B68B8
:104578001B6842F080029A617B681B681A697B6835
:104588001B6842F010021A617B68DB68032B10D1AC
:104598007B681B689A697B681B6842F020029A61F5
:1045A80007E07B681B689A697B681B6842F02002F9
:1045B8009A617B689B69013B5A067B68DB69013B12
:1045C8001B021A437B681B6A013B42EA03017B68B2
:1045D8005B69013B1A047B681B680A43DA617B68E4
:1045E8009B68B3F5407F15D17B689B6A5A1E7B6830
:1045F800DB6A013B1B021A437B681B6B013B1B01F7
:1046080042EA03017B685B6A013B1A047B681B680A
:104618000A43DA607B681B68D3F8C0107B68DA6BE2
:104628007B681B680A43C3F8C020786800F064FC04
:104638007B6800229A657B6800221A667B680122E3
:1046480083F85C20002318461037BD4680BD00BFA4
:10465800006400400065004080B487B000AF786017
:1046680039607B6893F85C30FB75FB7D012B02D0C9
:10467800FB7D022B3DD13B681B68002B19D13B68A1
:104688009B689A073B68DB68DB061A433B681B6933
:104698001B041A433B685B6913433B617B681A6CD4
:1046A8003B685B689B001344BB60BB683A691A604F
:1046B8001DE03B68DB685A073B681B6913433B6195
:1046C8003B689B689A073B685B691343FB607B68A0
:1046D8005A6C3B685B68DB001344BB60BB683A6993
:1046E8001A60BB680433BB60BB68FA681A600023B1
:1046F80006E07B681B6E43F002027B681A660123A2
:1047080018461C37BD465DF8047B704780B483B0FB
:1047180000AF78607B6893F85C30DBB2012B10D176
:104728007B68022283F85C207B681B689A697B6837
:104738001B6822F001029A617B6800221A66002336
:1047480006E07B681B6E43F004027B681A6601234F
:1047580018460C37BD465DF8047B704780B586B0B7
:1047680000AFF860B9607A60FB6893F85C30DBB240
:10477800022B2CD1FB681B68D3F8C43003F4001358
:10478800002B07D0FB681B6E43F40072FB681A66A7
:10479800012323E0FB681B68D3F8C4301B0C03F02B
:1047A80003037B617B697A68B968F86800F010FCDC
:1047B800FB681B6801217A6901FA02F2C3F8CC2070
:1047C80001227B699A40FB689A65002306E0FB6832
:1047D8001B6E43F00802FB681A6601231846183757
:1047E800BD4680BD80B48BB000AFF860B9607A6018
:1047F8003B600023FB61FB6893F85C30FB76FB7E33
:10480800022B40F0E880BB68402B37D1FB681B685F
:10481800D3F8903003F00F03002B07D1FB681B6E11
:1048280043F48072FB681A660123DBE0FB681B68AF
:10483800D3F8903003F08073B3F1807F0AD1FB681E
:104848001B68D3F8803003F40073B3F5007F01D1FF
:104858000123FB61FB681B68D3F890301B0A03F047
:104868000303FA691344FB61FB68996CFA69134600
:10487800DB001344DB000B447B6236E0FB681B68FB
:10488800D3F8983003F00F03002B07D1FB681B6E99
:1048980043F48072FB681A660123A3E0FB681B6877
:1048A800D3F8983003F08073B3F1807F0AD1FB68A6
:1048B8001B68D3F8803003F48073B3F5807F01D18F
:1048C8000123FB61FB681B68D3F898301B0A03F0CF
:1048D8000303FA691344FB61FB68D96CFA69134650
:1048E800DB001344DB000B447B627B6A1B6803F02C
:1048F80080427B685A607B685B68002B07D17B6AC3
:104908001B689B0CC3F30A027B681A6005E07B6A8C
:104918001B6823F060427B681A607B6A1B6803F09F
:1049280000527B689A607B6A1B6803F000427B68D0
:104938001A617B6A04337B627B6A1B689AB27B6864
:10494800DA617B6A1B681B0C03F00F027B68DA6074
:104958007B6A1B6803F480127B685A617B6A1B6858
:1049680003F400127B689A617B6A1B681B0E03F0D4
:104978007F027B681A627B6A1B68DA0F7B685A625F
:104988007B6A04337B627B6A7B6100233B620AE0BB
:104998007A693B6A1A4439683B6A0B4412781A7080
:1049A8003B6A01333B627B68DB68114AD35C1A4679
:1049B8003B6A9342ECD3BB68402B05D1FB681B686C
:1049C800FA69C3F8942004E0FB681B68FA69C3F825
:1049D8009C20002306E0FB681B6E43F00802FB687E
:1049E8001A66012318462C37BD465DF8047B7047CC
:1049F800B881000880B487B000AFF860B9607A6009
:104A0800FB6893F85C30FB75FB7D012B03D0FB7DC5
:104A1800022B40F0C880FB681B689B6D3B61BB683C
:104A280003F00703002B04D03B6903F00103002BBC
:104A38003BD0BB6803F03803002B04D03B6903F07C
:104A48000203002B31D0BB6803F4E073002B04D0C1
:104A58003B6903F00403002B27D0BB6803F4F05331
:104A6800002B04D03B6903F00803002B1DD0BB6862
:104A780003F46043002B04D03B6903F01003002BC0
:104A880013D0BB6803F44033002B04D03B6903F018
:104A98002003002B09D0BB6803F47C03002B0CD047
:104AA8003B6903F04003002B07D1FB681B68DA6DF4
:104AB800FB681B6842F00102DA65BB6803F0070374
:104AC800002B04D03B6903F00103002B3BD1BB68EA
:104AD80003F03803002B04D03B6903F00203002BDA
:104AE80031D1BB6803F4E073002B04D03B6903F0B9
:104AF8000403002B27D1BB6803F4F053002B04D028
:104B08003B6903F00803002B1DD1BB6803F4604325
:104B1800002B04D03B6903F01003002B13D1BB68B2
:104B280003F44033002B04D03B6903F02003002B2F
:104B380009D1BB6803F47C03002B0CD03B6903F05C
:104B48004003002B07D0FB681B68DA6DFB681B6805
:104B580042F00202DA65BB6803F08003002B09D03B
:104B6800FB681B68D3F8DC10FB681B687A680A438B
:104B7800C3F8DC20BB6803F48073002B09D0FB6802
:104B88001B68D3F8E010FB681B687A680A43C3F80F
:104B9800E020FB681B68596DFB681B68BA680A430C
:104BA8005A65002306E0FB681B6E43F00202FB68AF
:104BB8001A66012318461C37BD465DF8047B70470A
:104BC80080B58CB000AF78607B681B681B6D03F400
:104BD800E053FB627B681B685B6DFA6A1340FB62FB
:104BE8007B681B681B6D03F00703BB627B681B684F
:104BF8005B6DBA6A1340BB627B681B681B6D03F070
:104C080038037B627B681B685B6D7A6A13407B6242
:104C18007B681B681B6D03F471033B627B681B6830
:104C28005B6D3A6A13403B627B681B681B6D03F43B
:104C38006023FB617B681B685B6DFA691340FB614D
:104C48007B681B685B6DBB617B681B681B6D7B6148
:104C58007B699B0903F00103002B0CD0BB699B09FE
:104C680003F00103002B06D07B681B6840221A65FD
:104C7800786800F022F97B691B0A03F00103002B16
:104C88001AD0BB691B0A03F00103002B14D07B6800
:104C98001B68D3F8D8303B617B681B68D3F8E030D9
:104CA8003A6913403B617B681B684FF480721A6550
:104CB8003969786800F0E2F8FB6A002B07D07B6856
:104CC8001B68FA6A1A65F96A786800F0ACF8BB6A7A
:104CD800002B07D07B681B68BA6A1A65B96A7868BE
:104CE800FDF792FA7B6A002B07D07B681B687A6A0B
:104CF8001A65796A786800F0A1F87B695B0A03F0A5
:104D08000103002B0DD0BB695B0A03F00103002BE4
:104D180007D07B681B684FF400721A65786800F04A
:104D280098F87B69DB0903F00103002B19D0BB69F4
:104D3800DB0903F00103002B13D07B681B68D3F851
:104D4800D430FB607B681B68D3F8DC30FA6813400A
:104D5800FB607B681B6880221A65F968786800F038
:104D680082F87B695B0B03F00103002B0DD0BB6954
:104D78005B0B03F00103002B07D07B681B684FF423
:104D880000521A65786800F084F87B69DB0B03F041
:104D98000103002B0DD0BB69DB0B03F00103002BD3
:104DA80007D07B681B684FF400421A65786800F0EA
:104DB8007AF87B699B0B03F00103002B10D0BB69C9
:104DC8009B0B03F00103002B0AD07B681B684FF490
:104DD80080421A657B681B6E43F080027B681A6606
:104DE800FB69002B07D07B681B68FA691A65F969AB
:104DF800786800F076F83B6A002B09D07B681B685E
:104E08003A6A1A657B681A6E3B6A1A437B681A66A7
:104E18007B681B6E002B02D0786800F058F800BF42
:104E28003037BD4680BD80B483B000AF786039604C
:104E380000BF0C37BD465DF8047B704780B483B073
:104E480000AF7860396000BF0C37BD465DF8047B61
:104E5800704780B483B000AF786000BF0C37BD46A0
:104E68005DF8047B704780B483B000AF7860396028
:104E780000BF0C37BD465DF8047B704780B483B033
:104E880000AF7860396000BF0C37BD465DF8047B21
:104E9800704780B483B000AF786000BF0C37BD4660
:104EA8005DF8047B704780B483B000AF786000BFC2
:104EB8000C37BD465DF8047B704780B483B000AF03
:104EC800786000BF0C37BD465DF8047B704780B43E
:104ED80083B000AF786000BF0C37BD465DF8047B37
:104EE800704780B483B000AF7860396000BF0C377A
:104EF800BD465DF8047B704780B485B000AF78602C
:104F0800304BBB607B681B682F4A934203D1BB6858
:104F180003F55473BB607B681B682C4A934203D12A
:104F2800BB6803F5D463BB607B68BA681A647B68A6
:104F38001B68D3F8803023F4F8117B685B6B1A0484
:104F48007B681B680A43C3F88020BB6803F17002C2
:104F58007B685A647B681B68D3F8803023F07061E3
:104F68007B689B6B1A067B681B680A43C3F8802022
:104F7800BB6803F1B0027B689A64BB6803F5C4722E
:104F88007B68DA64BB6803F518727B681A65BB68CE
:104F980003F51E727B685A65BB68FB6005E0FB6819
:104FA80000221A60FB680433FB60BB6803F5547386
:104FB800FA689A42F3D300BF00BF1437BD465DF8C4
:104FC800047B704700A4004000680040006C00406B
:104FD80080B489B000AFF860B9607A603B60BB68A4
:104FE8005B68002B0AD1BB681A69BB689B681A43C7
:104FF800BB681B689B041343FB610AE0BB681A6922
:10500800BB689B681A43BB681B68134343F0804323
:10501800FB61BB681B6A1A06BB68DB691A43BB687D
:105028009B691A43BB685B691A43BB68DB681B044E
:1050380013433B61FB68596D3A681346DB00134420
:10504800DB000B44BB61BB69FA691A60BB690433B6
:10505800BB61BB693A691A60BB690433BB61002351
:105068007B6120E07B6903337A6813441B781A0656
:105078007B69023379680B441B781B041A437B69EC
:10508800013379680B441B781B02134379687A69EA
:105098000A4412781A43BB691A60BB690433BB61BE
:1050A8007B6904337B61BB68DB68064AD35C1A46BC
:1050B8007B699342D6D300BF00BF2437BD465DF855
:1050C800047B7047B881000880B487B000AF78606F
:1050D800396000237B615AE13B681A6801217B69CA
:1050E80001FA03F31340FB60FB68002B00F04C81CE
:1050F8003B685B6803F00303012B05D03B685B68E2
:1051080003F00303022B30D17B689B683B617B690A
:105118005B00032202FA03F3DB433A6913403B6165
:105128003B68DA687B695B0002FA03F33A69134368
:105138003B617B683A699A607B685B683B610122E6
:105148007B6902FA03F3DB433A6913403B613B682E
:105158005B681B0903F001027B6902FA03F33A69F1
:1051680013433B617B683A695A603B685B6803F0AC
:105178000303032B17D07B68DB683B617B695B000B
:10518800032202FA03F3DB433A6913403B613B68AD
:105198009A687B695B0002FA03F33A6913433B613F
:1051A8007B683A69DA603B685B6803F00303022BAB
:1051B80023D17B69DA087B68083253F822303B61D7
:1051C8007B6903F007039B000F2202FA03F3DB431A
:1051D8003A6913403B613B681A697B6903F007032E
:1051E8009B0002FA03F33A6913433B617B69DA08CF
:1051F8007B680832396943F822107B681B683B6179
:105208007B695B00032202FA03F3DB433A6913402C
:105218003B613B685B6803F003027B695B0002FA51
:1052280003F33A6913433B617B683A691A603B6848
:105238005B6803F44033002B00F0A6805B4B1B6EC9
:105248005A4A43F001031366584B1B6E03F00103DF
:10525800BB60BB68564A7B699B08023352F823300F
:105268003B617B6903F003039B000F2202FA03F3FF
:10527800DB433A6913403B617B68B3F1904F1FD021
:105288007B684C4A934219D07B684B4A934213D0AF
:105298007B684A4A93420DD07B68494A934207D0BB
:1052A8007B68484A934201D105230AE0062308E0B7
:1052B800042306E0032304E0022302E0012300E0C4
:1052C80000237A6902F00302920093403A6913437B
:1052D8003B6137497B699B0802333A6941F82320CF
:1052E800394B9B683B61FB68DB433A6913403B6180
:1052F8003B685B6803F48013002B03D03A69FB68B2
:1053080013433B61304A3B6993602F4BDB683B6139
:10531800FB68DB433A6913403B613B685B6803F415
:105328000013002B03D03A69FB6813433B61264AFC
:105338003B69D360244B5B683B61FB68DB433A699C
:1053480013403B613B685B6803F40033002B03D0D8
:105358003A69FB6813433B611B4A3B6953601A4B2C
:105368001B683B61FB68DB433A6913403B613B6860
:105378005B6803F48033002B03D03A69FB6813435E
:105388003B61114A3B6913607B6901337B613B6870
:105398001A687B6922FA03F3002B7FF49DAE00BFE5
:1053A80000BF1C37BD465DF8047B70470010024003
:1053B800000001400004004800080048000C0048B4
:1053C80000100048001400480004014080B485B073
:1053D80000AF78600B467B807B681A697B88134036
:1053E800002B02D00123FB7301E00023FB73FB7B3E
:1053F80018461437BD465DF8047B704780B483B007
:1054080000AF78600B467B8013467B707B78002B5F
:1054180003D07A887B689A6102E07A887B689A620E
:1054280000BF0C37BD465DF8047B704780B485B07B
:1054380000AF78600B467B807B685B69FB607A888D
:10544800FB6813401A04FB68D9437B880B401A4356
:105458007B689A6100BF1437BD465DF8047B7047CE
:1054680080B582B000AF0346FB80084B5A69FB88C1
:105478001340002B06D0054AFB885361FB88184669
:10548800FCF7E4FE00BF0837BD4680BD00040140BC
:1054980080B582B000AF78607B68002B01D1012312
:1054A8008DE07B6893F84130DBB2002B06D17B6836
:1054B800002283F840207868FDF79AF97B68242257
:1054C80083F841207B681B681A687B681B6822F098
:1054D80001021A607B685A687B681B6822F0706258
:1054E8001A617B681B689A687B681B6822F4004213
:1054F8009A607B68DB68012B07D17B689A687B68B8
:105508001B6842F400429A6006E07B689A687B68F0
:105518001B6842F404429A607B68DB68022B08D15E
:105528007B681B685A687B681B6842F400625A6093
:1055380007E07B681B685A687B681B6822F4006276
:105548005A607B681B685B687A68126843F000736E
:1055580043F4004353607B681B68DA687B681B6808
:1055680022F40042DA607B681A697B685B6942EA68
:1055780003017B689B691A027B681B680A43DA602F
:105588007B68D9697B681A6A7B681B680A431A605A
:105598007B681B681A687B681B6842F001021A6006
:1055A8007B6800225A647B68202283F841207B684C
:1055B80000221A637B68002283F8422000231846E1
:1055C8000837BD4680BD80B483B000AF78603960CD
:1055D8007B6893F84130DBB2202B38D17B6893F895
:1055E8004030012B01D1022332E07B68012283F88D
:1055F80040207B68242283F841207B681B681A6856
:105608007B681B6822F001021A607B681B681A68B5
:105618007B681B6822F480521A607B681B681968D3
:105628007B681B683A680A431A607B681B681A68BB
:105638007B681B6842F001021A607B68202283F8AD
:1056480041207B68002283F84020002300E00223E9
:1056580018460C37BD465DF8047B704780B485B0AA
:1056680000AF786039607B6893F84130DBB2202B5B
:1056780039D17B6893F84030012B01D1022333E004
:105688007B68012283F840207B68242283F841202C
:105698007B681B681A687B681B6822F001021A6025
:1056A8007B681B681B68FB60FB6823F47063FB6006
:1056B8003B681B02FA681343FB607B681B68FA6847
:1056C8001A607B681B681A687B681B6842F00102D5
:1056D8001A607B68202283F841207B68002283F8C7
:1056E8004020002300E0022318461437BD465DF829
:1056F800047B704780B584B000AF78607B68002B6E
:1057080001D10123C0E07B6893F89132DBB2002B12
:1057180006D17B68002283F890227868FDF76EFA3C
:105728007B68032283F891227B681B68184602F085
:105738008AFB0023FB733EE0FA7B796813469B00E3
:105748001344DB000B44113301221A70FA7B796889
:1057580013469B001344DB000B441033FA7B1A708A
:10576800FA7B796813469B001344DB000B44133320
:1057780000221A70FA7B796813469B001344DB00F9
:105788000B44203300221A60FA7B796813469B0089
:105798001344DB000B44243300221A60FB7B796836
:1057A8005A1C13469B001344DB000B4400221A606A
:1057B800FB7B0133FB737B681B79FA7B9A42BBD373
:1057C8000023FB7344E0FA7B796813469B0013447B
:1057D800DB000B4403F2511300221A70FA7B79683C
:1057E80013469B001344DB000B4403F5A873FA7BB4
:1057F8001A70FA7B796813469B001344DB000B444C
:1058080003F2531300221A70FA7B796813469B003F
:105818001344DB000B4403F5B07300221A60FA7BD3
:10582800796813469B001344DB000B4403F5B273FD
:1058380000221A60FA7B796813469B001344DB0048
:105848000B4403F5B47300221A60FB7B0133FB732E
:105858007B681B79FA7B9A42B5D37B6818687B68AA
:10586800043393E8060002F009FB7B6800221A73F0
:105878007B68012283F891227B689B7A012B02D1F5
:10588800786800F005F8002318461037BD4680BD3B
:1058980080B485B000AF78607B681B68FB607B686C
:1058A8000122C3F8D0227B68002283F8C822FB6853
:1058B800B3F854309BB243F001039AB2FB68A3F8E3
:1058C8005420FB68B3F854309BB243F002039AB2F9
:1058D800FB68A3F85420002318461437BD465DF82A
:1058E800047B704780B485B000AF78607B68002B7C
:1058F80041D14B4B1B6803F4C063B3F5806F31D1C2
:10590800474BD3F88030464A23F48073C2F880307E
:10591800434B1B6823F4C063414A43F4007313608C
:10592800404B1B68322202FB03F33F4AA2FB0323CE
:105938009B0C0133FB6002E0FB68013BFB60384BCA
:105948005B6903F48063B3F5806F02D1FB68002BB9
:10595800F2D1334B5B6903F48063B3F5806F58D1A0
:10596800032357E02E4BD3F880302D4A23F480735D
:10597800C2F880304DE07B68B3F5007F41D1284BF9
:105988001B6803F4C063B3F5806F31D1244BD3F89F
:105998008030234A43F48073C2F88030204B1B6860
:1059A80023F4C0631E4A43F4007313601D4B1B6845
:1059B800322202FB03F31C4AA2FB03239B0C013394
:1059C800FB6002E0FB68013BFB60154B5B6903F47D
:1059D8008063B3F5806F02D1FB68002BF2D1104BC6
:1059E8005B6903F48063B3F5806F12D1032311E080
:1059F8000B4BD3F880300A4A43F48073C2F88030E6
:105A080007E0074B1B6823F4C063054A43F480632F
:105A18001360002318461437BD465DF8047B7047B1
:105A2800007000400800002083DE1B4380B400AFF4
:105A3800054B9B68044A43F48043936000BFBD460E
:105A48005DF8047B704700BF0070004080B588B0E7
:105A580000AF78607B68002B01D10123FEE27B68F0
:105A68001B6803F00103002B75D0974B9B6803F06C
:105A78000C03BB61944BDB6803F003037B61BB69D8
:105A88000C2B02D17B69032B02D0BB69082B0BD1ED
:105A98008D4B1B6803F40033002B5BD07B685B687D
:105AA800002B57D10123D9E27B685B68B3F5803FAF
:105AB80006D1854B1B68844A43F4803313601DE08C
:105AC8007B685B68B3F5A02F0CD17F4B1B687E4ABF
